{"abi":[{"type":"constructor","inputs":[{"name":"_beneficiary","type":"address","internalType":"address"},{"name":"_targetAmount","type":"uint256","internalType":"uint256"},{"name":"_unlockTimestamp","type":"uint256","internalType":"uint256"}],"stateMutability":"nonpayable"},{"type":"function","name":"BENEFICIARY","inputs":[],"outputs":[{"name":"","type":"address","internalType":"address"}],"stateMutability":"view"},{"type":"function","name":"TARGET_AMOUNT","inputs":[],"outputs":[{"name":"","type":"uint256","internalType":"uint256"}],"stateMutability":"view"},{"type":"function","name":"UNLOCK_TIMESTAMP","inputs":[],"outputs":[{"name":"","type":"uint256","internalType":"uint256"}],"stateMutability":"view"},{"type":"function","name":"USDC","inputs":[],"outputs":[{"name":"","type":"address","internalType":"contract IERC20"}],"stateMutability":"view"},{"type":"function","name":"deposit","inputs":[{"name":"amount","type":"uint256","internalType":"uint256"}],"outputs":[],"stateMutability":"nonpayable"},{"type":"function","name":"isReleased","inputs":[],"outputs":[{"name":"","type":"bool","internalType":"bool"}],"stateMutability":"view"},{"type":"function","name":"release","inputs":[],"outputs":[],"stateMutability":"nonpayable"},{"type":"function","name":"totalDeposited","inputs":[],"outputs":[{"name":"","type":"uint256","internalType":"uint256"}],"stateMutability":"view"},{"type":"event","name":"Deposited","inputs":[{"name":"sender","type":"address","indexed":true,"internalType":"address"},{"name":"amount","type":"uint256","indexed":false,"internalType":"uint256"}],"anonymous":false},{"type":"event","name":"Released","inputs":[{"name":"beneficiary","type":"address","indexed":true,"internalType":"address"},{"name":"amount","type":"uint256","indexed":false,"internalType":"uint256"}],"anonymous":false},{"type":"error","name":"AlreadyReleased","inputs":[]},{"type":"error","name":"InvalidBeneficiary","inputs":[]},{"type":"error","name":"InvalidTarget","inputs":[]},{"type":"error","name":"InvalidUnlockTime","inputs":[]},{"type":"error","name":"NothingToRelease","inputs":[]},{"type":"error","name":"SafeERC20FailedOperation","inputs":[{"name":"token","type":"address","internalType":"address"}]},{"type":"error","name":"ZeroDeposit","inputs":[]}],"bytecode":{"object":"0x60e060405234801562000010575f80fd5b5060405162000c8d38038062000c8d8339818101604052810190620000369190620001fa565b5f73ffffffffffffffffffffffffffffffffffffffff168373ffffffffffffffffffffffffffffffffffffffff16036200009c576040517f5566df5c00000000000000000000000000000000000000000000000000000000815260040160405180910390fd5b5f8203620000d6576040517f82d5d76a00000000000000000000000000000000000000000000000000000000815260040160405180910390fd5b42811162000110576040517fa5574da600000000000000000000000000000000000000000000000000000000815260040160405180910390fd5b8273ffffffffffffffffffffffffffffffffffffffff1660808173ffffffffffffffffffffffffffffffffffffffff16815250508160a081815250508060c0818152505050505062000253565b5f80fd5b5f73ffffffffffffffffffffffffffffffffffffffff82169050919050565b5f6200018c8262000161565b9050919050565b6200019e8162000180565b8114620001a9575f80fd5b50565b5f81519050620001bc8162000193565b92915050565b5f819050919050565b620001d681620001c2565b8114620001e1575f80fd5b50565b5f81519050620001f481620001cb565b92915050565b5f805f606084860312156200021457620002136200015d565b5b5f6200022386828701620001ac565b93505060206200023686828701620001e4565b92505060406200024986828701620001e4565b9150509250925092565b60805160a05160c0516109e5620002a85f395f818161021f0152818161029c015261041001525f818161018a015281816101f401526103e501525f818161016601528181610541015261059d01526109e55ff3fe608060405234801561000f575f80fd5b5060043610610086575f3560e01c80639e02cf4e116100595780639e02cf4e146100ee578063b6b55f251461010c578063fa2a899714610128578063ff50abdc1461014657610086565b80632f99c6cc1461008a57806330f0dbe0146100a857806386d1a69f146100c657806389a30271146100d0575b5f80fd5b610092610164565b60405161009f91906107c6565b60405180910390f35b6100b0610188565b6040516100bd91906107f7565b60405180910390f35b6100ce6101ac565b005b6100d8610282565b6040516100e5919061086b565b60405180910390f35b6100f661029a565b60405161010391906107f7565b60405180910390f35b610126600480360381019061012191906108b2565b6102be565b005b610130610444565b60405161013d91906108f7565b60405180910390f35b61014e610456565b60405161015b91906107f7565b60405180910390f35b7f000000000000000000000000000000000000000000000000000000000000000081565b7f000000000000000000000000000000000000000000000000000000000000000081565b60015f9054906101000a900460ff16156101f2576040517f63b4904e00000000000000000000000000000000000000000000000000000000815260040160405180910390fd5b7f00000000000000000000000000000000000000000000000000000000000000005f5410801561024157507f000000000000000000000000000000000000000000000000000000000000000042105b15610278576040517fb10205ed00000000000000000000000000000000000000000000000000000000815260040160405180910390fd5b61028061045b565b565b73833589fcd6edb6e08f4c7c32d4f71b54bda0291381565b7f000000000000000000000000000000000000000000000000000000000000000081565b60015f9054906101000a900460ff1615610304576040517f63b4904e00000000000000000000000000000000000000000000000000000000815260040160405180910390fd5b5f810361033d576040517f56316e8700000000000000000000000000000000000000000000000000000000815260040160405180910390fd5b61037e33308373833589fcd6edb6e08f4c7c32d4f71b54bda0291373ffffffffffffffffffffffffffffffffffffffff1661060c909392919063ffffffff16565b805f8082825461038e919061093d565b925050819055503373ffffffffffffffffffffffffffffffffffffffff167f2da466a7b24304f47e87fa2e1e5a81b9831ce54fec19055ce277ca2f39ba42c4826040516103db91906107f7565b60405180910390a27f00000000000000000000000000000000000000000000000000000000000000005f5410158061043357507f00000000000000000000000000000000000000000000000000000000000000004210155b156104415761044061045b565b5b50565b60015f9054906101000a900460ff1681565b5f5481565b5f73833589fcd6edb6e08f4c7c32d4f71b54bda0291373ffffffffffffffffffffffffffffffffffffffff166370a08231306040518263ffffffff1660e01b81526004016104a991906107c6565b602060405180830381865afa1580156104c4573d5f803e3d5ffd5b505050506040513d601f19601f820116820180604052508101906104e89190610984565b90505f8103610523576040517fb10205ed00000000000000000000000000000000000000000000000000000000815260040160405180910390fd5b6001805f6101000a81548160ff02191690831515021790555061059b7f00000000000000000000000000000000000000000000000000000000000000008273833589fcd6edb6e08f4c7c32d4f71b54bda0291373ffffffffffffffffffffffffffffffffffffffff166106619092919063ffffffff16565b7f000000000000000000000000000000000000000000000000000000000000000073ffffffffffffffffffffffffffffffffffffffff167fb21fb52d5749b80f3182f8c6992236b5e5576681880914484d7f4c9b062e619e8260405161060191906107f7565b60405180910390a250565b61061a8484848460016106b4565b61065b57836040517f5274afe700000000000000000000000000000000000000000000000000000000815260040161065291906107c6565b60405180910390fd5b50505050565b61066e8383836001610725565b6106af57826040517f5274afe70000000000000000000000000000000000000000000000000000000081526004016106a691906107c6565b60405180910390fd5b505050565b5f806323b872dd60e01b9050604051815f525f1960601c87166004525f1960601c86166024528460445260205f60645f808c5af1925060015f51148316610712578383151615610706573d5f823e3d81fd5b5f883b113d1516831692505b806040525f606052505095945050505050565b5f8063a9059cbb60e01b9050604051815f525f1960601c86166004528460245260205f60445f808b5af1925060015f5114831661077957838315161561076d573d5f823e3d81fd5b5f873b113d1516831692505b806040525050949350505050565b5f73ffffffffffffffffffffffffffffffffffffffff82169050919050565b5f6107b082610787565b9050919050565b6107c0816107a6565b82525050565b5f6020820190506107d95f8301846107b7565b92915050565b5f819050919050565b6107f1816107df565b82525050565b5f60208201905061080a5f8301846107e8565b92915050565b5f819050919050565b5f61083361082e61082984610787565b610810565b610787565b9050919050565b5f61084482610819565b9050919050565b5f6108558261083a565b9050919050565b6108658161084b565b82525050565b5f60208201905061087e5f83018461085c565b92915050565b5f80fd5b610891816107df565b811461089b575f80fd5b50565b5f813590506108ac81610888565b92915050565b5f602082840312156108c7576108c6610884565b5b5f6108d48482850161089e565b91505092915050565b5f8115159050919050565b6108f1816108dd565b82525050565b5f60208201905061090a5f8301846108e8565b92915050565b7f4e487b71000000000000000000000000000000000000000000000000000000005f52601160045260245ffd5b5f610947826107df565b9150610952836107df565b925082820190508082111561096a57610969610910565b5b92915050565b5f8151905061097e81610888565b92915050565b5f6020828403121561099957610998610884565b5b5f6109a684828501610970565b9150509291505056fea2646970667358221220784c6aaa77033683cf85da1a5d3b1406c422fb1d63c8984ccc8733d14d0122e864736f6c63430008180033","linkReferences":{}},"methodIdentifiers":{"BENEFICIARY()":"2f99c6cc","TARGET_AMOUNT()":"30f0dbe0","UNLOCK_TIMESTAMP()":"9e02cf4e","USDC()":"89a30271","deposit(uint256)":"b6b55f25","isReleased()":"fa2a8997","release()":"86d1a69f","totalDeposited()":"ff50abdc"},"id":25}