{"abi":[{"type":"constructor","inputs":[{"name":"_beneficiary","type":"address","internalType":"address"},{"name":"_targetAmount","type":"uint256","internalType":"uint256"},{"name":"_unlockTimestamp","type":"uint256","internalType":"uint256"}],"stateMutability":"nonpayable"},{"type":"function","name":"USDC","inputs":[],"outputs":[{"name":"","type":"address","internalType":"contract IERC20"}],"stateMutability":"view"},{"type":"function","name":"beneficiary","inputs":[],"outputs":[{"name":"","type":"address","internalType":"address"}],"stateMutability":"view"},{"type":"function","name":"deposit","inputs":[{"name":"amount","type":"uint256","internalType":"uint256"}],"outputs":[],"stateMutability":"nonpayable"},{"type":"function","name":"isReleased","inputs":[],"outputs":[{"name":"","type":"bool","internalType":"bool"}],"stateMutability":"view"},{"type":"function","name":"targetAmount","inputs":[],"outputs":[{"name":"","type":"uint256","internalType":"uint256"}],"stateMutability":"view"},{"type":"function","name":"totalDeposited","inputs":[],"outputs":[{"name":"","type":"uint256","internalType":"uint256"}],"stateMutability":"view"},{"type":"function","name":"unlockTimestamp","inputs":[],"outputs":[{"name":"","type":"uint256","internalType":"uint256"}],"stateMutability":"view"},{"type":"event","name":"Deposited","inputs":[{"name":"sender","type":"address","indexed":true,"internalType":"address"},{"name":"amount","type":"uint256","indexed":false,"internalType":"uint256"}],"anonymous":false},{"type":"event","name":"Released","inputs":[{"name":"beneficiary","type":"address","indexed":true,"internalType":"address"},{"name":"amount","type":"uint256","indexed":false,"internalType":"uint256"}],"anonymous":false},{"type":"error","name":"AlreadyReleased","inputs":[]},{"type":"error","name":"InvalidBeneficiary","inputs":[]},{"type":"error","name":"InvalidTarget","inputs":[]},{"type":"error","name":"InvalidUnlockTime","inputs":[]},{"type":"error","name":"NothingToRelease","inputs":[]},{"type":"error","name":"SafeERC20FailedOperation","inputs":[{"name":"token","type":"address","internalType":"address"}]},{"type":"error","name":"ZeroDeposit","inputs":[]}],"bytecode":{"object":"0x60e060405234801561000f575f80fd5b5060405162000b6e38038062000b6e833981810160405281019061003391906101e7565b5f73ffffffffffffffffffffffffffffffffffffffff168373ffffffffffffffffffffffffffffffffffffffff1603610098576040517f5566df5c00000000000000000000000000000000000000000000000000000000815260040160405180910390fd5b5f82036100d1576040517f82d5d76a00000000000000000000000000000000000000000000000000000000815260040160405180910390fd5b42811161010a576040517fa5574da600000000000000000000000000000000000000000000000000000000815260040160405180910390fd5b8273ffffffffffffffffffffffffffffffffffffffff1660808173ffffffffffffffffffffffffffffffffffffffff16815250508160a081815250508060c08181525050505050610237565b5f80fd5b5f73ffffffffffffffffffffffffffffffffffffffff82169050919050565b5f6101838261015a565b9050919050565b61019381610179565b811461019d575f80fd5b50565b5f815190506101ae8161018a565b92915050565b5f819050919050565b6101c6816101b4565b81146101d0575f80fd5b50565b5f815190506101e1816101bd565b92915050565b5f805f606084860312156101fe576101fd610156565b5b5f61020b868287016101a0565b935050602061021c868287016101d3565b925050604061022d868287016101d3565b9150509250925092565b60805160a05160c0516108f06200027e5f395f81816101b1015261032501525f818161018d01526102fa01525f818161015101528181610433015261048f01526108f05ff3fe608060405234801561000f575f80fd5b506004361061007b575f3560e01c8063aa082a9d11610059578063aa082a9d146100d9578063b6b55f25146100f7578063fa2a899714610113578063ff50abdc146101315761007b565b806338af3eed1461007f57806389a302711461009d578063953b8fb8146100bb575b5f80fd5b61008761014f565b60405161009491906106d1565b60405180910390f35b6100a5610173565b6040516100b29190610745565b60405180910390f35b6100c361018b565b6040516100d09190610776565b60405180910390f35b6100e16101af565b6040516100ee9190610776565b60405180910390f35b610111600480360381019061010c91906107bd565b6101d3565b005b61011b610500565b6040516101289190610802565b60405180910390f35b610139610512565b6040516101469190610776565b60405180910390f35b7f000000000000000000000000000000000000000000000000000000000000000081565b73833589fcd6edb6e08f4c7c32d4f71b54bda0291381565b7f000000000000000000000000000000000000000000000000000000000000000081565b7f000000000000000000000000000000000000000000000000000000000000000081565b60015f9054906101000a900460ff1615610219576040517f63b4904e00000000000000000000000000000000000000000000000000000000815260040160405180910390fd5b5f8103610252576040517f56316e8700000000000000000000000000000000000000000000000000000000815260040160405180910390fd5b61029333308373833589fcd6edb6e08f4c7c32d4f71b54bda0291373ffffffffffffffffffffffffffffffffffffffff16610517909392919063ffffffff16565b805f808282546102a39190610848565b925050819055503373ffffffffffffffffffffffffffffffffffffffff167f2da466a7b24304f47e87fa2e1e5a81b9831ce54fec19055ce277ca2f39ba42c4826040516102f09190610776565b60405180910390a27f00000000000000000000000000000000000000000000000000000000000000005f5410158061034857507f00000000000000000000000000000000000000000000000000000000000000004210155b156104fd575f73833589fcd6edb6e08f4c7c32d4f71b54bda0291373ffffffffffffffffffffffffffffffffffffffff166370a08231306040518263ffffffff1660e01b815260040161039b91906106d1565b602060405180830381865afa1580156103b6573d5f803e3d5ffd5b505050506040513d601f19601f820116820180604052508101906103da919061088f565b90505f8103610415576040517fb10205ed00000000000000000000000000000000000000000000000000000000815260040160405180910390fd5b6001805f6101000a81548160ff02191690831515021790555061048d7f00000000000000000000000000000000000000000000000000000000000000008273833589fcd6edb6e08f4c7c32d4f71b54bda0291373ffffffffffffffffffffffffffffffffffffffff1661056c9092919063ffffffff16565b7f000000000000000000000000000000000000000000000000000000000000000073ffffffffffffffffffffffffffffffffffffffff167fb21fb52d5749b80f3182f8c6992236b5e5576681880914484d7f4c9b062e619e826040516104f39190610776565b60405180910390a2505b50565b60015f9054906101000a900460ff1681565b5f5481565b6105258484848460016105bf565b61056657836040517f5274afe700000000000000000000000000000000000000000000000000000000815260040161055d91906106d1565b60405180910390fd5b50505050565b6105798383836001610630565b6105ba57826040517f5274afe70000000000000000000000000000000000000000000000000000000081526004016105b191906106d1565b60405180910390fd5b505050565b5f806323b872dd60e01b9050604051815f525f1960601c87166004525f1960601c86166024528460445260205f60645f808c5af1925060015f5114831661061d578383151615610611573d5f823e3d81fd5b5f883b113d1516831692505b806040525f606052505095945050505050565b5f8063a9059cbb60e01b9050604051815f525f1960601c86166004528460245260205f60445f808b5af1925060015f51148316610684578383151615610678573d5f823e3d81fd5b5f873b113d1516831692505b806040525050949350505050565b5f73ffffffffffffffffffffffffffffffffffffffff82169050919050565b5f6106bb82610692565b9050919050565b6106cb816106b1565b82525050565b5f6020820190506106e45f8301846106c2565b92915050565b5f819050919050565b5f61070d61070861070384610692565b6106ea565b610692565b9050919050565b5f61071e826106f3565b9050919050565b5f61072f82610714565b9050919050565b61073f81610725565b82525050565b5f6020820190506107585f830184610736565b92915050565b5f819050919050565b6107708161075e565b82525050565b5f6020820190506107895f830184610767565b92915050565b5f80fd5b61079c8161075e565b81146107a6575f80fd5b50565b5f813590506107b781610793565b92915050565b5f602082840312156107d2576107d161078f565b5b5f6107df848285016107a9565b91505092915050565b5f8115159050919050565b6107fc816107e8565b82525050565b5f6020820190506108155f8301846107f3565b92915050565b7f4e487b71000000000000000000000000000000000000000000000000000000005f52601160045260245ffd5b5f6108528261075e565b915061085d8361075e565b92508282019050808211156108755761087461081b565b5b92915050565b5f8151905061088981610793565b92915050565b5f602082840312156108a4576108a361078f565b5b5f6108b18482850161087b565b9150509291505056fea26469706673582212208bf374089c22a75e68a82c5d20a87996606095f7e0029f6655225e173cd7d8bc64736f6c63430008180033","linkReferences":{}},"methodIdentifiers":{"USDC()":"89a30271","beneficiary()":"38af3eed","deposit(uint256)":"b6b55f25","isReleased()":"fa2a8997","targetAmount()":"953b8fb8","totalDeposited()":"ff50abdc","unlockTimestamp()":"aa082a9d"},"id":27}